{
  "_format": "hh-sol-artifact-1",
  "contractName": "DeCloud",
  "sourceName": "contracts/DeCloud.sol",
  "abi": [
    {
      "inputs": [
        {
          "internalType": "uint256",
          "name": "maxFiles",
          "type": "uint256"
        }
      ],
      "stateMutability": "nonpayable",
      "type": "constructor"
    },
    {
      "anonymous": false,
      "inputs": [
        {
          "indexed": false,
          "internalType": "uint256",
          "name": "id",
          "type": "uint256"
        },
        {
          "indexed": false,
          "internalType": "string",
          "name": "name",
          "type": "string"
        },
        {
          "indexed": false,
          "internalType": "string",
          "name": "url",
          "type": "string"
        }
      ],
      "name": "UploadFile",
      "type": "event"
    },
    {
      "inputs": [
        {
          "internalType": "address",
          "name": "",
          "type": "address"
        },
        {
          "internalType": "uint256",
          "name": "",
          "type": "uint256"
        }
      ],
      "name": "addressToFiles",
      "outputs": [
        {
          "internalType": "uint256",
          "name": "id",
          "type": "uint256"
        },
        {
          "internalType": "string",
          "name": "name",
          "type": "string"
        },
        {
          "internalType": "string",
          "name": "url",
          "type": "string"
        }
      ],
      "stateMutability": "view",
      "type": "function"
    },
    {
      "inputs": [
        {
          "internalType": "uint256",
          "name": "",
          "type": "uint256"
        }
      ],
      "name": "files",
      "outputs": [
        {
          "internalType": "uint256",
          "name": "id",
          "type": "uint256"
        },
        {
          "internalType": "string",
          "name": "name",
          "type": "string"
        },
        {
          "internalType": "string",
          "name": "url",
          "type": "string"
        }
      ],
      "stateMutability": "view",
      "type": "function"
    },
    {
      "inputs": [],
      "name": "getNumFiles",
      "outputs": [
        {
          "internalType": "uint256",
          "name": "",
          "type": "uint256"
        }
      ],
      "stateMutability": "view",
      "type": "function"
    },
    {
      "inputs": [
        {
          "internalType": "string",
          "name": "url",
          "type": "string"
        },
        {
          "internalType": "string",
          "name": "name",
          "type": "string"
        }
      ],
      "name": "uploadFile",
      "outputs": [],
      "stateMutability": "nonpayable",
      "type": "function"
    }
  ],
  "bytecode": "0x60c06040526000803373ffffffffffffffffffffffffffffffffffffffff1673ffffffffffffffffffffffffffffffffffffffff168152602001908152602001600020600190805462000054929190620000cb565b503480156200006257600080fd5b50604051620012303803806200123083398181016040528101906200008891906200024a565b3373ffffffffffffffffffffffffffffffffffffffff1660808173ffffffffffffffffffffffffffffffffffffffff16815250508060a0818152505050620005fa565b8280548282559060005260206000209060030281019282156200014d5760005260206000209160030282015b828111156200014c5782826000820154816000015560018201816001019081620001229190620004f9565b5060028201816002019081620001399190620004f9565b50505091600301919060030190620000f7565b5b5090506200015c919062000160565b5090565b5b80821115620001a157600080820160009055600182016000620001859190620001a5565b600282016000620001979190620001a5565b5060030162000161565b5090565b508054620001b390620002ab565b6000825580601f10620001c75750620001e8565b601f016020900490600052602060002090810190620001e79190620001eb565b5b50565b5b8082111562000206576000816000905550600101620001ec565b5090565b600080fd5b6000819050919050565b62000224816200020f565b81146200023057600080fd5b50565b600081519050620002448162000219565b92915050565b6000602082840312156200026357620002626200020a565b5b6000620002738482850162000233565b91505092915050565b7f4e487b7100000000000000000000000000000000000000000000000000000000600052602260045260246000fd5b60006002820490506001821680620002c457607f821691505b602082108103620002da57620002d96200027c565b5b50919050565b600081549050620002f181620002ab565b9050919050565b7f4e487b7100000000000000000000000000000000000000000000000000000000600052604160045260246000fd5b60008190508160005260206000209050919050565b60006020601f8301049050919050565b600082821b905092915050565b6000600883026200038b7fffffffffffffffffffffffffffffffffffffffffffffffffffffffffffffffff826200034c565b6200039786836200034c565b95508019841693508086168417925050509392505050565b6000819050919050565b6000620003da620003d4620003ce846200020f565b620003af565b6200020f565b9050919050565b6000819050919050565b620003f683620003b9565b6200040e6200040582620003e1565b84845462000359565b825550505050565b600090565b6200042562000416565b62000432818484620003eb565b505050565b5b818110156200045a576200044e6000826200041b565b60018101905062000438565b5050565b601f821115620004a957620004738162000327565b6200047e846200033c565b810160208510156200048e578190505b620004a66200049d856200033c565b83018262000437565b50505b505050565b600082821c905092915050565b6000620004ce60001984600802620004ae565b1980831691505092915050565b6000620004e98383620004bb565b9150826002028217905092915050565b81810362000509575050620005f8565b6200051482620002e0565b67ffffffffffffffff81111562000530576200052f620002f8565b5b6200053c8254620002ab565b620005498282856200045e565b6000601f8311600181146200057d576000841562000568578287015490505b620005748582620004db565b865550620005f1565b601f1984166200058d8762000327565b96506200059a8662000327565b60005b82811015620005c4578489015482556001820191506001850194506020810190506200059d565b86831015620005e45784890154620005e0601f891682620004bb565b8355505b6001600288020188555050505b5050505050505b565b60805160a051610c136200061d6000396000610255015260005050610c136000f3fe608060405234801561001057600080fd5b506004361061004c5760003560e01c8063782ad5161461005157806397e8f55e14610083578063996d50bf146100a1578063f4c714b4146100bd575b600080fd5b61006b6004803603810190610066919061057a565b6100ef565b60405161007a93929190610659565b60405180910390f35b61008b610246565b604051610098919061069e565b60405180910390f35b6100bb60048036038101906100b691906107ee565b610253565b005b6100d760048036038101906100d29190610866565b610388565b6040516100e693929190610659565b60405180910390f35b6000602052816000526040600020818154811061010b57600080fd5b906000526020600020906003020160009150915050806000015490806001018054610135906108c2565b80601f0160208091040260200160405190810160405280929190818152602001828054610161906108c2565b80156101ae5780601f10610183576101008083540402835291602001916101ae565b820191906000526020600020905b81548152906001019060200180831161019157829003601f168201915b5050505050908060020180546101c3906108c2565b80601f01602080910402602001604051908101604052809291908181526020018280546101ef906108c2565b801561023c5780601f106102115761010080835404028352916020019161023c565b820191906000526020600020905b81548152906001019060200180831161021f57829003601f168201915b5050505050905083565b6000600180549050905090565b7f0000000000000000000000000000000000000000000000000000000000000000600180549050106102ba576040517f08c379a00000000000000000000000000000000000000000000000000000000081526004016102b19061093f565b60405180910390fd5b6000600180549050905060006040518060600160405280838152602001848152602001858152509050600181908060018154018082558091505060019003906000526020600020906003020160009091909190915060008201518160000155602082015181600101908161032e9190610b0b565b5060408201518160020190816103449190610b0b565b5050507f3569bcaa457d8beb292f8edfa802ea9d11d5322a42e9e2eac4d8bc3ffd18104682848660405161037a93929190610659565b60405180910390a150505050565b6001818154811061039857600080fd5b90600052602060002090600302016000915090508060000154908060010180546103c1906108c2565b80601f01602080910402602001604051908101604052809291908181526020018280546103ed906108c2565b801561043a5780601f1061040f5761010080835404028352916020019161043a565b820191906000526020600020905b81548152906001019060200180831161041d57829003601f168201915b50505050509080600201805461044f906108c2565b80601f016020809104026020016040519081016040528092919081815260200182805461047b906108c2565b80156104c85780601f1061049d576101008083540402835291602001916104c8565b820191906000526020600020905b8154815290600101906020018083116104ab57829003601f168201915b5050505050905083565b6000604051905090565b600080fd5b600080fd5b600073ffffffffffffffffffffffffffffffffffffffff82169050919050565b6000610511826104e6565b9050919050565b61052181610506565b811461052c57600080fd5b50565b60008135905061053e81610518565b92915050565b6000819050919050565b61055781610544565b811461056257600080fd5b50565b6000813590506105748161054e565b92915050565b60008060408385031215610591576105906104dc565b5b600061059f8582860161052f565b92505060206105b085828601610565565b9150509250929050565b6105c381610544565b82525050565b600081519050919050565b600082825260208201905092915050565b60005b838110156106035780820151818401526020810190506105e8565b60008484015250505050565b6000601f19601f8301169050919050565b600061062b826105c9565b61063581856105d4565b93506106458185602086016105e5565b61064e8161060f565b840191505092915050565b600060608201905061066e60008301866105ba565b81810360208301526106808185610620565b905081810360408301526106948184610620565b9050949350505050565b60006020820190506106b360008301846105ba565b92915050565b600080fd5b600080fd5b7f4e487b7100000000000000000000000000000000000000000000000000000000600052604160045260246000fd5b6106fb8261060f565b810181811067ffffffffffffffff8211171561071a576107196106c3565b5b80604052505050565b600061072d6104d2565b905061073982826106f2565b919050565b600067ffffffffffffffff821115610759576107586106c3565b5b6107628261060f565b9050602081019050919050565b82818337600083830152505050565b600061079161078c8461073e565b610723565b9050828152602081018484840111156107ad576107ac6106be565b5b6107b884828561076f565b509392505050565b600082601f8301126107d5576107d46106b9565b5b81356107e584826020860161077e565b91505092915050565b60008060408385031215610805576108046104dc565b5b600083013567ffffffffffffffff811115610823576108226104e1565b5b61082f858286016107c0565b925050602083013567ffffffffffffffff8111156108505761084f6104e1565b5b61085c858286016107c0565b9150509250929050565b60006020828403121561087c5761087b6104dc565b5b600061088a84828501610565565b91505092915050565b7f4e487b7100000000000000000000000000000000000000000000000000000000600052602260045260246000fd5b600060028204905060018216806108da57607f821691505b6020821081036108ed576108ec610893565b5b50919050565b7f4d6178206e756d626572206f662066696c657320726561636865640000000000600082015250565b6000610929601b836105d4565b9150610934826108f3565b602082019050919050565b600060208201905081810360008301526109588161091c565b9050919050565b60008190508160005260206000209050919050565b60006020601f8301049050919050565b600082821b905092915050565b6000600883026109c17fffffffffffffffffffffffffffffffffffffffffffffffffffffffffffffffff82610984565b6109cb8683610984565b95508019841693508086168417925050509392505050565b6000819050919050565b6000610a08610a036109fe84610544565b6109e3565b610544565b9050919050565b6000819050919050565b610a22836109ed565b610a36610a2e82610a0f565b848454610991565b825550505050565b600090565b610a4b610a3e565b610a56818484610a19565b505050565b5b81811015610a7a57610a6f600082610a43565b600181019050610a5c565b5050565b601f821115610abf57610a908161095f565b610a9984610974565b81016020851015610aa8578190505b610abc610ab485610974565b830182610a5b565b50505b505050565b600082821c905092915050565b6000610ae260001984600802610ac4565b1980831691505092915050565b6000610afb8383610ad1565b9150826002028217905092915050565b610b14826105c9565b67ffffffffffffffff811115610b2d57610b2c6106c3565b5b610b3782546108c2565b610b42828285610a7e565b600060209050601f831160018114610b755760008415610b63578287015190505b610b6d8582610aef565b865550610bd5565b601f198416610b838661095f565b60005b82811015610bab57848901518255600182019150602085019450602081019050610b86565b86831015610bc85784890151610bc4601f891682610ad1565b8355505b6001600288020188555050505b50505050505056fea26469706673582212200859e985e0c05e80cf32a97784eaeb4fd44d32e54c9f3741337809b590c2e92664736f6c63430008110033",
  "linkReferences": {},
  "deployedLinkReferences": {}
}