{"contracts/DeCloud.sol":{"DeCloud":{"abi":[{"inputs":[{"internalType":"uint256","name":"maxFiles","type":"uint256"}],"stateMutability":"nonpayable","type":"constructor"},{"anonymous":false,"inputs":[{"indexed":false,"internalType":"uint256","name":"id","type":"uint256"},{"indexed":false,"internalType":"string","name":"name","type":"string"},{"indexed":false,"internalType":"string","name":"url","type":"string"}],"name":"UploadFile","type":"event"},{"inputs":[{"internalType":"address","name":"","type":"address"},{"internalType":"uint256","name":"","type":"uint256"}],"name":"addressToFiles","outputs":[{"internalType":"uint256","name":"id","type":"uint256"},{"internalType":"string","name":"name","type":"string"},{"internalType":"string","name":"url","type":"string"}],"stateMutability":"view","type":"function"},{"inputs":[{"internalType":"uint256","name":"","type":"uint256"}],"name":"files","outputs":[{"internalType":"uint256","name":"id","type":"uint256"},{"internalType":"string","name":"name","type":"string"},{"internalType":"string","name":"url","type":"string"}],"stateMutability":"view","type":"function"},{"inputs":[],"name":"getNumFiles","outputs":[{"internalType":"uint256","name":"","type":"uint256"}],"stateMutability":"view","type":"function"},{"inputs":[{"internalType":"string","name":"url","type":"string"},{"internalType":"string","name":"name","type":"string"}],"name":"uploadFile","outputs":[],"stateMutability":"nonpayable","type":"function"}],"evm":{"bytecode":{"linkReferences":{},"object":"60c06040526000803373ffffffffffffffffffffffffffffffffffffffff1673ffffffffffffffffffffffffffffffffffffffff168152602001908152602001600020600190805462000054929190620000cb565b503480156200006257600080fd5b50604051620012303803806200123083398181016040528101906200008891906200024a565b3373ffffffffffffffffffffffffffffffffffffffff1660808173ffffffffffffffffffffffffffffffffffffffff16815250508060a0818152505050620005fa565b8280548282559060005260206000209060030281019282156200014d5760005260206000209160030282015b828111156200014c5782826000820154816000015560018201816001019081620001229190620004f9565b5060028201816002019081620001399190620004f9565b50505091600301919060030190620000f7565b5b5090506200015c919062000160565b5090565b5b80821115620001a157600080820160009055600182016000620001859190620001a5565b600282016000620001979190620001a5565b5060030162000161565b5090565b508054620001b390620002ab565b6000825580601f10620001c75750620001e8565b601f016020900490600052602060002090810190620001e79190620001eb565b5b50565b5b8082111562000206576000816000905550600101620001ec565b5090565b600080fd5b6000819050919050565b62000224816200020f565b81146200023057600080fd5b50565b600081519050620002448162000219565b92915050565b6000602082840312156200026357620002626200020a565b5b6000620002738482850162000233565b91505092915050565b7f4e487b7100000000000000000000000000000000000000000000000000000000600052602260045260246000fd5b60006002820490506001821680620002c457607f821691505b602082108103620002da57620002d96200027c565b5b50919050565b600081549050620002f181620002ab565b9050919050565b7f4e487b7100000000000000000000000000000000000000000000000000000000600052604160045260246000fd5b60008190508160005260206000209050919050565b60006020601f8301049050919050565b600082821b905092915050565b6000600883026200038b7fffffffffffffffffffffffffffffffffffffffffffffffffffffffffffffffff826200034c565b6200039786836200034c565b95508019841693508086168417925050509392505050565b6000819050919050565b6000620003da620003d4620003ce846200020f565b620003af565b6200020f565b9050919050565b6000819050919050565b620003f683620003b9565b6200040e6200040582620003e1565b84845462000359565b825550505050565b600090565b6200042562000416565b62000432818484620003eb565b505050565b5b818110156200045a576200044e6000826200041b565b60018101905062000438565b5050565b601f821115620004a957620004738162000327565b6200047e846200033c565b810160208510156200048e578190505b620004a66200049d856200033c565b83018262000437565b50505b505050565b600082821c905092915050565b6000620004ce60001984600802620004ae565b1980831691505092915050565b6000620004e98383620004bb565b9150826002028217905092915050565b81810362000509575050620005f8565b6200051482620002e0565b67ffffffffffffffff81111562000530576200052f620002f8565b5b6200053c8254620002ab565b620005498282856200045e565b6000601f8311600181146200057d576000841562000568578287015490505b620005748582620004db565b865550620005f1565b601f1984166200058d8762000327565b96506200059a8662000327565b60005b82811015620005c4578489015482556001820191506001850194506020810190506200059d565b86831015620005e45784890154620005e0601f891682620004bb565b8355505b6001600288020188555050505b5050505050505b565b60805160a051610c136200061d6000396000610255015260005050610c136000f3fe608060405234801561001057600080fd5b506004361061004c5760003560e01c8063782ad5161461005157806397e8f55e14610083578063996d50bf146100a1578063f4c714b4146100bd575b600080fd5b61006b6004803603810190610066919061057a565b6100ef565b60405161007a93929190610659565b60405180910390f35b61008b610246565b604051610098919061069e565b60405180910390f35b6100bb60048036038101906100b691906107ee565b610253565b005b6100d760048036038101906100d29190610866565b610388565b6040516100e693929190610659565b60405180910390f35b6000602052816000526040600020818154811061010b57600080fd5b906000526020600020906003020160009150915050806000015490806001018054610135906108c2565b80601f0160208091040260200160405190810160405280929190818152602001828054610161906108c2565b80156101ae5780601f10610183576101008083540402835291602001916101ae565b820191906000526020600020905b81548152906001019060200180831161019157829003601f168201915b5050505050908060020180546101c3906108c2565b80601f01602080910402602001604051908101604052809291908181526020018280546101ef906108c2565b801561023c5780601f106102115761010080835404028352916020019161023c565b820191906000526020600020905b81548152906001019060200180831161021f57829003601f168201915b5050505050905083565b6000600180549050905090565b7f0000000000000000000000000000000000000000000000000000000000000000600180549050106102ba576040517f08c379a00000000000000000000000000000000000000000000000000000000081526004016102b19061093f565b60405180910390fd5b6000600180549050905060006040518060600160405280838152602001848152602001858152509050600181908060018154018082558091505060019003906000526020600020906003020160009091909190915060008201518160000155602082015181600101908161032e9190610b0b565b5060408201518160020190816103449190610b0b565b5050507f3569bcaa457d8beb292f8edfa802ea9d11d5322a42e9e2eac4d8bc3ffd18104682848660405161037a93929190610659565b60405180910390a150505050565b6001818154811061039857600080fd5b90600052602060002090600302016000915090508060000154908060010180546103c1906108c2565b80601f01602080910402602001604051908101604052809291908181526020018280546103ed906108c2565b801561043a5780601f1061040f5761010080835404028352916020019161043a565b820191906000526020600020905b81548152906001019060200180831161041d57829003601f168201915b50505050509080600201805461044f906108c2565b80601f016020809104026020016040519081016040528092919081815260200182805461047b906108c2565b80156104c85780601f1061049d576101008083540402835291602001916104c8565b820191906000526020600020905b8154815290600101906020018083116104ab57829003601f168201915b5050505050905083565b6000604051905090565b600080fd5b600080fd5b600073ffffffffffffffffffffffffffffffffffffffff82169050919050565b6000610511826104e6565b9050919050565b61052181610506565b811461052c57600080fd5b50565b60008135905061053e81610518565b92915050565b6000819050919050565b61055781610544565b811461056257600080fd5b50565b6000813590506105748161054e565b92915050565b60008060408385031215610591576105906104dc565b5b600061059f8582860161052f565b92505060206105b085828601610565565b9150509250929050565b6105c381610544565b82525050565b600081519050919050565b600082825260208201905092915050565b60005b838110156106035780820151818401526020810190506105e8565b60008484015250505050565b6000601f19601f8301169050919050565b600061062b826105c9565b61063581856105d4565b93506106458185602086016105e5565b61064e8161060f565b840191505092915050565b600060608201905061066e60008301866105ba565b81810360208301526106808185610620565b905081810360408301526106948184610620565b9050949350505050565b60006020820190506106b360008301846105ba565b92915050565b600080fd5b600080fd5b7f4e487b7100000000000000000000000000000000000000000000000000000000600052604160045260246000fd5b6106fb8261060f565b810181811067ffffffffffffffff8211171561071a576107196106c3565b5b80604052505050565b600061072d6104d2565b905061073982826106f2565b919050565b600067ffffffffffffffff821115610759576107586106c3565b5b6107628261060f565b9050602081019050919050565b82818337600083830152505050565b600061079161078c8461073e565b610723565b9050828152602081018484840111156107ad576107ac6106be565b5b6107b884828561076f565b509392505050565b600082601f8301126107d5576107d46106b9565b5b81356107e584826020860161077e565b91505092915050565b60008060408385031215610805576108046104dc565b5b600083013567ffffffffffffffff811115610823576108226104e1565b5b61082f858286016107c0565b925050602083013567ffffffffffffffff8111156108505761084f6104e1565b5b61085c858286016107c0565b9150509250929050565b60006020828403121561087c5761087b6104dc565b5b600061088a84828501610565565b91505092915050565b7f4e487b7100000000000000000000000000000000000000000000000000000000600052602260045260246000fd5b600060028204905060018216806108da57607f821691505b6020821081036108ed576108ec610893565b5b50919050565b7f4d6178206e756d626572206f662066696c657320726561636865640000000000600082015250565b6000610929601b836105d4565b9150610934826108f3565b602082019050919050565b600060208201905081810360008301526109588161091c565b9050919050565b60008190508160005260206000209050919050565b60006020601f8301049050919050565b600082821b905092915050565b6000600883026109c17fffffffffffffffffffffffffffffffffffffffffffffffffffffffffffffffff82610984565b6109cb8683610984565b95508019841693508086168417925050509392505050565b6000819050919050565b6000610a08610a036109fe84610544565b6109e3565b610544565b9050919050565b6000819050919050565b610a22836109ed565b610a36610a2e82610a0f565b848454610991565b825550505050565b600090565b610a4b610a3e565b610a56818484610a19565b505050565b5b81811015610a7a57610a6f600082610a43565b600181019050610a5c565b5050565b601f821115610abf57610a908161095f565b610a9984610974565b81016020851015610aa8578190505b610abc610ab485610974565b830182610a5b565b50505b505050565b600082821c905092915050565b6000610ae260001984600802610ac4565b1980831691505092915050565b6000610afb8383610ad1565b9150826002028217905092915050565b610b14826105c9565b67ffffffffffffffff811115610b2d57610b2c6106c3565b5b610b3782546108c2565b610b42828285610a7e565b600060209050601f831160018114610b755760008415610b63578287015190505b610b6d8582610aef565b865550610bd5565b601f198416610b838661095f565b60005b82811015610bab57848901518255600182019150602085019450602081019050610b86565b86831015610bc85784890151610bc4601f891682610ad1565b8355505b6001600288020188555050505b50505050505056fea26469706673582212200859e985e0c05e80cf32a97784eaeb4fd44d32e54c9f3741337809b590c2e92664736f6c63430008110033","opcodes":"PUSH1 0xC0 PUSH1 0x40 MSTORE PUSH1 0x0 DUP1 CALLER PUSH20 0xFFFFFFFFFFFFFFFFFFFFFFFFFFFFFFFFFFFFFFFF AND PUSH20 0xFFFFFFFFFFFFFFFFFFFFFFFFFFFFFFFFFFFFFFFF AND DUP2 MSTORE PUSH1 0x20 ADD SWAP1 DUP2 MSTORE PUSH1 0x20 ADD PUSH1 0x0 KECCAK256 PUSH1 0x1 SWAP1 DUP1 SLOAD PUSH3 0x54 SWAP3 SWAP2 SWAP1 PUSH3 0xCB JUMP JUMPDEST POP CALLVALUE DUP1 ISZERO PUSH3 0x62 JUMPI PUSH1 0x0 DUP1 REVERT JUMPDEST POP PUSH1 0x40 MLOAD PUSH3 0x1230 CODESIZE SUB DUP1 PUSH3 0x1230 DUP4 CODECOPY DUP2 DUP2 ADD PUSH1 0x40 MSTORE DUP2 ADD SWAP1 PUSH3 0x88 SWAP2 SWAP1 PUSH3 0x24A JUMP JUMPDEST CALLER PUSH20 0xFFFFFFFFFFFFFFFFFFFFFFFFFFFFFFFFFFFFFFFF AND PUSH1 0x80 DUP2 PUSH20 0xFFFFFFFFFFFFFFFFFFFFFFFFFFFFFFFFFFFFFFFF AND DUP2 MSTORE POP POP DUP1 PUSH1 0xA0 DUP2 DUP2 MSTORE POP POP POP PUSH3 0x5FA JUMP JUMPDEST DUP3 DUP1 SLOAD DUP3 DUP3 SSTORE SWAP1 PUSH1 0x0 MSTORE PUSH1 0x20 PUSH1 0x0 KECCAK256 SWAP1 PUSH1 0x3 MUL DUP2 ADD SWAP3 DUP3 ISZERO PUSH3 0x14D JUMPI PUSH1 0x0 MSTORE PUSH1 0x20 PUSH1 0x0 KECCAK256 SWAP2 PUSH1 0x3 MUL DUP3 ADD JUMPDEST DUP3 DUP2 GT ISZERO PUSH3 0x14C JUMPI DUP3 DUP3 PUSH1 0x0 DUP3 ADD SLOAD DUP2 PUSH1 0x0 ADD SSTORE PUSH1 0x1 DUP3 ADD DUP2 PUSH1 0x1 ADD SWAP1 DUP2 PUSH3 0x122 SWAP2 SWAP1 PUSH3 0x4F9 JUMP JUMPDEST POP PUSH1 0x2 DUP3 ADD DUP2 PUSH1 0x2 ADD SWAP1 DUP2 PUSH3 0x139 SWAP2 SWAP1 PUSH3 0x4F9 JUMP JUMPDEST POP POP POP SWAP2 PUSH1 0x3 ADD SWAP2 SWAP1 PUSH1 0x3 ADD SWAP1 PUSH3 0xF7 JUMP JUMPDEST JUMPDEST POP SWAP1 POP PUSH3 0x15C SWAP2 SWAP1 PUSH3 0x160 JUMP JUMPDEST POP SWAP1 JUMP JUMPDEST JUMPDEST DUP1 DUP3 GT ISZERO PUSH3 0x1A1 JUMPI PUSH1 0x0 DUP1 DUP3 ADD PUSH1 0x0 SWAP1 SSTORE PUSH1 0x1 DUP3 ADD PUSH1 0x0 PUSH3 0x185 SWAP2 SWAP1 PUSH3 0x1A5 JUMP JUMPDEST PUSH1 0x2 DUP3 ADD PUSH1 0x0 PUSH3 0x197 SWAP2 SWAP1 PUSH3 0x1A5 JUMP JUMPDEST POP PUSH1 0x3 ADD PUSH3 0x161 JUMP JUMPDEST POP SWAP1 JUMP JUMPDEST POP DUP1 SLOAD PUSH3 0x1B3 SWAP1 PUSH3 0x2AB JUMP JUMPDEST PUSH1 0x0 DUP3 SSTORE DUP1 PUSH1 0x1F LT PUSH3 0x1C7 JUMPI POP PUSH3 0x1E8 JUMP JUMPDEST PUSH1 0x1F ADD PUSH1 0x20 SWAP1 DIV SWAP1 PUSH1 0x0 MSTORE PUSH1 0x20 PUSH1 0x0 KECCAK256 SWAP1 DUP2 ADD SWAP1 PUSH3 0x1E7 SWAP2 SWAP1 PUSH3 0x1EB JUMP JUMPDEST JUMPDEST POP JUMP JUMPDEST JUMPDEST DUP1 DUP3 GT ISZERO PUSH3 0x206 JUMPI PUSH1 0x0 DUP2 PUSH1 0x0 SWAP1 SSTORE POP PUSH1 0x1 ADD PUSH3 0x1EC JUMP JUMPDEST POP SWAP1 JUMP JUMPDEST PUSH1 0x0 DUP1 REVERT JUMPDEST PUSH1 0x0 DUP2 SWAP1 POP SWAP2 SWAP1 POP JUMP JUMPDEST PUSH3 0x224 DUP2 PUSH3 0x20F JUMP JUMPDEST DUP2 EQ PUSH3 0x230 JUMPI PUSH1 0x0 DUP1 REVERT JUMPDEST POP JUMP JUMPDEST PUSH1 0x0 DUP2 MLOAD SWAP1 POP PUSH3 0x244 DUP2 PUSH3 0x219 JUMP JUMPDEST SWAP3 SWAP2 POP POP JUMP JUMPDEST PUSH1 0x0 PUSH1 0x20 DUP3 DUP5 SUB SLT ISZERO PUSH3 0x263 JUMPI PUSH3 0x262 PUSH3 0x20A JUMP JUMPDEST JUMPDEST PUSH1 0x0 PUSH3 0x273 DUP5 DUP3 DUP6 ADD PUSH3 0x233 JUMP JUMPDEST SWAP2 POP POP SWAP3 SWAP2 POP POP JUMP JUMPDEST PUSH32 0x4E487B7100000000000000000000000000000000000000000000000000000000 PUSH1 0x0 MSTORE PUSH1 0x22 PUSH1 0x4 MSTORE PUSH1 0x24 PUSH1 0x0 REVERT JUMPDEST PUSH1 0x0 PUSH1 0x2 DUP3 DIV SWAP1 POP PUSH1 0x1 DUP3 AND DUP1 PUSH3 0x2C4 JUMPI PUSH1 0x7F DUP3 AND SWAP2 POP JUMPDEST PUSH1 0x20 DUP3 LT DUP2 SUB PUSH3 0x2DA JUMPI PUSH3 0x2D9 PUSH3 0x27C JUMP JUMPDEST JUMPDEST POP SWAP2 SWAP1 POP JUMP JUMPDEST PUSH1 0x0 DUP2 SLOAD SWAP1 POP PUSH3 0x2F1 DUP2 PUSH3 0x2AB JUMP JUMPDEST SWAP1 POP SWAP2 SWAP1 POP JUMP JUMPDEST PUSH32 0x4E487B7100000000000000000000000000000000000000000000000000000000 PUSH1 0x0 MSTORE PUSH1 0x41 PUSH1 0x4 MSTORE PUSH1 0x24 PUSH1 0x0 REVERT JUMPDEST PUSH1 0x0 DUP2 SWAP1 POP DUP2 PUSH1 0x0 MSTORE PUSH1 0x20 PUSH1 0x0 KECCAK256 SWAP1 POP SWAP2 SWAP1 POP JUMP JUMPDEST PUSH1 0x0 PUSH1 0x20 PUSH1 0x1F DUP4 ADD DIV SWAP1 POP SWAP2 SWAP1 POP JUMP JUMPDEST PUSH1 0x0 DUP3 DUP3 SHL SWAP1 POP SWAP3 SWAP2 POP POP JUMP JUMPDEST PUSH1 0x0 PUSH1 0x8 DUP4 MUL PUSH3 0x38B PUSH32 0xFFFFFFFFFFFFFFFFFFFFFFFFFFFFFFFFFFFFFFFFFFFFFFFFFFFFFFFFFFFFFFFF DUP3 PUSH3 0x34C JUMP JUMPDEST PUSH3 0x397 DUP7 DUP4 PUSH3 0x34C JUMP JUMPDEST SWAP6 POP DUP1 NOT DUP5 AND SWAP4 POP DUP1 DUP7 AND DUP5 OR SWAP3 POP POP POP SWAP4 SWAP3 POP POP POP JUMP JUMPDEST PUSH1 0x0 DUP2 SWAP1 POP SWAP2 SWAP1 POP JUMP JUMPDEST PUSH1 0x0 PUSH3 0x3DA PUSH3 0x3D4 PUSH3 0x3CE DUP5 PUSH3 0x20F JUMP JUMPDEST PUSH3 0x3AF JUMP JUMPDEST PUSH3 0x20F JUMP JUMPDEST SWAP1 POP SWAP2 SWAP1 POP JUMP JUMPDEST PUSH1 0x0 DUP2 SWAP1 POP SWAP2 SWAP1 POP JUMP JUMPDEST PUSH3 0x3F6 DUP4 PUSH3 0x3B9 JUMP JUMPDEST PUSH3 0x40E PUSH3 0x405 DUP3 PUSH3 0x3E1 JUMP JUMPDEST DUP5 DUP5 SLOAD PUSH3 0x359 JUMP JUMPDEST DUP3 SSTORE POP POP POP POP JUMP JUMPDEST PUSH1 0x0 SWAP1 JUMP JUMPDEST PUSH3 0x425 PUSH3 0x416 JUMP JUMPDEST PUSH3 0x432 DUP2 DUP5 DUP5 PUSH3 0x3EB JUMP JUMPDEST POP POP POP JUMP JUMPDEST JUMPDEST DUP2 DUP2 LT ISZERO PUSH3 0x45A JUMPI PUSH3 0x44E PUSH1 0x0 DUP3 PUSH3 0x41B JUMP JUMPDEST PUSH1 0x1 DUP2 ADD SWAP1 POP PUSH3 0x438 JUMP JUMPDEST POP POP JUMP JUMPDEST PUSH1 0x1F DUP3 GT ISZERO PUSH3 0x4A9 JUMPI PUSH3 0x473 DUP2 PUSH3 0x327 JUMP JUMPDEST PUSH3 0x47E DUP5 PUSH3 0x33C JUMP JUMPDEST DUP2 ADD PUSH1 0x20 DUP6 LT ISZERO PUSH3 0x48E JUMPI DUP2 SWAP1 POP JUMPDEST PUSH3 0x4A6 PUSH3 0x49D DUP6 PUSH3 0x33C JUMP JUMPDEST DUP4 ADD DUP3 PUSH3 0x437 JUMP JUMPDEST POP POP JUMPDEST POP POP POP JUMP JUMPDEST PUSH1 0x0 DUP3 DUP3 SHR SWAP1 POP SWAP3 SWAP2 POP POP JUMP JUMPDEST PUSH1 0x0 PUSH3 0x4CE PUSH1 0x0 NOT DUP5 PUSH1 0x8 MUL PUSH3 0x4AE JUMP JUMPDEST NOT DUP1 DUP4 AND SWAP2 POP POP SWAP3 SWAP2 POP POP JUMP JUMPDEST PUSH1 0x0 PUSH3 0x4E9 DUP4 DUP4 PUSH3 0x4BB JUMP JUMPDEST SWAP2 POP DUP3 PUSH1 0x2 MUL DUP3 OR SWAP1 POP SWAP3 SWAP2 POP POP JUMP JUMPDEST DUP2 DUP2 SUB PUSH3 0x509 JUMPI POP POP PUSH3 0x5F8 JUMP JUMPDEST PUSH3 0x514 DUP3 PUSH3 0x2E0 JUMP JUMPDEST PUSH8 0xFFFFFFFFFFFFFFFF DUP2 GT ISZERO PUSH3 0x530 JUMPI PUSH3 0x52F PUSH3 0x2F8 JUMP JUMPDEST JUMPDEST PUSH3 0x53C DUP3 SLOAD PUSH3 0x2AB JUMP JUMPDEST PUSH3 0x549 DUP3 DUP3 DUP6 PUSH3 0x45E JUMP JUMPDEST PUSH1 0x0 PUSH1 0x1F DUP4 GT PUSH1 0x1 DUP2 EQ PUSH3 0x57D JUMPI PUSH1 0x0 DUP5 ISZERO PUSH3 0x568 JUMPI DUP3 DUP8 ADD SLOAD SWAP1 POP JUMPDEST PUSH3 0x574 DUP6 DUP3 PUSH3 0x4DB JUMP JUMPDEST DUP7 SSTORE POP PUSH3 0x5F1 JUMP JUMPDEST PUSH1 0x1F NOT DUP5 AND PUSH3 0x58D DUP8 PUSH3 0x327 JUMP JUMPDEST SWAP7 POP PUSH3 0x59A DUP7 PUSH3 0x327 JUMP JUMPDEST PUSH1 0x0 JUMPDEST DUP3 DUP2 LT ISZERO PUSH3 0x5C4 JUMPI DUP5 DUP10 ADD SLOAD DUP3 SSTORE PUSH1 0x1 DUP3 ADD SWAP2 POP PUSH1 0x1 DUP6 ADD SWAP5 POP PUSH1 0x20 DUP2 ADD SWAP1 POP PUSH3 0x59D JUMP JUMPDEST DUP7 DUP4 LT ISZERO PUSH3 0x5E4 JUMPI DUP5 DUP10 ADD SLOAD PUSH3 0x5E0 PUSH1 0x1F DUP10 AND DUP3 PUSH3 0x4BB JUMP JUMPDEST DUP4 SSTORE POP JUMPDEST PUSH1 0x1 PUSH1 0x2 DUP9 MUL ADD DUP9 SSTORE POP POP POP JUMPDEST POP POP POP POP POP POP JUMPDEST JUMP JUMPDEST PUSH1 0x80 MLOAD PUSH1 0xA0 MLOAD PUSH2 0xC13 PUSH3 0x61D PUSH1 0x0 CODECOPY PUSH1 0x0 PUSH2 0x255 ADD MSTORE PUSH1 0x0 POP POP PUSH2 0xC13 PUSH1 0x0 RETURN INVALID PUSH1 0x80 PUSH1 0x40 MSTORE CALLVALUE DUP1 ISZERO PUSH2 0x10 JUMPI PUSH1 0x0 DUP1 REVERT JUMPDEST POP PUSH1 0x4 CALLDATASIZE LT PUSH2 0x4C JUMPI PUSH1 0x0 CALLDATALOAD PUSH1 0xE0 SHR DUP1 PUSH4 0x782AD516 EQ PUSH2 0x51 JUMPI DUP1 PUSH4 0x97E8F55E EQ PUSH2 0x83 JUMPI DUP1 PUSH4 0x996D50BF EQ PUSH2 0xA1 JUMPI DUP1 PUSH4 0xF4C714B4 EQ PUSH2 0xBD JUMPI JUMPDEST PUSH1 0x0 DUP1 REVERT JUMPDEST PUSH2 0x6B PUSH1 0x4 DUP1 CALLDATASIZE SUB DUP2 ADD SWAP1 PUSH2 0x66 SWAP2 SWAP1 PUSH2 0x57A JUMP JUMPDEST PUSH2 0xEF JUMP JUMPDEST PUSH1 0x40 MLOAD PUSH2 0x7A SWAP4 SWAP3 SWAP2 SWAP1 PUSH2 0x659 JUMP JUMPDEST PUSH1 0x40 MLOAD DUP1 SWAP2 SUB SWAP1 RETURN JUMPDEST PUSH2 0x8B PUSH2 0x246 JUMP JUMPDEST PUSH1 0x40 MLOAD PUSH2 0x98 SWAP2 SWAP1 PUSH2 0x69E JUMP JUMPDEST PUSH1 0x40 MLOAD DUP1 SWAP2 SUB SWAP1 RETURN JUMPDEST PUSH2 0xBB PUSH1 0x4 DUP1 CALLDATASIZE SUB DUP2 ADD SWAP1 PUSH2 0xB6 SWAP2 SWAP1 PUSH2 0x7EE JUMP JUMPDEST PUSH2 0x253 JUMP JUMPDEST STOP JUMPDEST PUSH2 0xD7 PUSH1 0x4 DUP1 CALLDATASIZE SUB DUP2 ADD SWAP1 PUSH2 0xD2 SWAP2 SWAP1 PUSH2 0x866 JUMP JUMPDEST PUSH2 0x388 JUMP JUMPDEST PUSH1 0x40 MLOAD PUSH2 0xE6 SWAP4 SWAP3 SWAP2 SWAP1 PUSH2 0x659 JUMP JUMPDEST PUSH1 0x40 MLOAD DUP1 SWAP2 SUB SWAP1 RETURN JUMPDEST PUSH1 0x0 PUSH1 0x20 MSTORE DUP2 PUSH1 0x0 MSTORE PUSH1 0x40 PUSH1 0x0 KECCAK256 DUP2 DUP2 SLOAD DUP2 LT PUSH2 0x10B JUMPI PUSH1 0x0 DUP1 REVERT JUMPDEST SWAP1 PUSH1 0x0 MSTORE PUSH1 0x20 PUSH1 0x0 KECCAK256 SWAP1 PUSH1 0x3 MUL ADD PUSH1 0x0 SWAP2 POP SWAP2 POP POP DUP1 PUSH1 0x0 ADD SLOAD SWAP1 DUP1 PUSH1 0x1 ADD DUP1 SLOAD PUSH2 0x135 SWAP1 PUSH2 0x8C2 JUMP JUMPDEST DUP1 PUSH1 0x1F ADD PUSH1 0x20 DUP1 SWAP2 DIV MUL PUSH1 0x20 ADD PUSH1 0x40 MLOAD SWAP1 DUP2 ADD PUSH1 0x40 MSTORE DUP1 SWAP3 SWAP2 SWAP1 DUP2 DUP2 MSTORE PUSH1 0x20 ADD DUP3 DUP1 SLOAD PUSH2 0x161 SWAP1 PUSH2 0x8C2 JUMP JUMPDEST DUP1 ISZERO PUSH2 0x1AE JUMPI DUP1 PUSH1 0x1F LT PUSH2 0x183 JUMPI PUSH2 0x100 DUP1 DUP4 SLOAD DIV MUL DUP4 MSTORE SWAP2 PUSH1 0x20 ADD SWAP2 PUSH2 0x1AE JUMP JUMPDEST DUP3 ADD SWAP2 SWAP1 PUSH1 0x0 MSTORE PUSH1 0x20 PUSH1 0x0 KECCAK256 SWAP1 JUMPDEST DUP2 SLOAD DUP2 MSTORE SWAP1 PUSH1 0x1 ADD SWAP1 PUSH1 0x20 ADD DUP1 DUP4 GT PUSH2 0x191 JUMPI DUP3 SWAP1 SUB PUSH1 0x1F AND DUP3 ADD SWAP2 JUMPDEST POP POP POP POP POP SWAP1 DUP1 PUSH1 0x2 ADD DUP1 SLOAD PUSH2 0x1C3 SWAP1 PUSH2 0x8C2 JUMP JUMPDEST DUP1 PUSH1 0x1F ADD PUSH1 0x20 DUP1 SWAP2 DIV MUL PUSH1 0x20 ADD PUSH1 0x40 MLOAD SWAP1 DUP2 ADD PUSH1 0x40 MSTORE DUP1 SWAP3 SWAP2 SWAP1 DUP2 DUP2 MSTORE PUSH1 0x20 ADD DUP3 DUP1 SLOAD PUSH2 0x1EF SWAP1 PUSH2 0x8C2 JUMP JUMPDEST DUP1 ISZERO PUSH2 0x23C JUMPI DUP1 PUSH1 0x1F LT PUSH2 0x211 JUMPI PUSH2 0x100 DUP1 DUP4 SLOAD DIV MUL DUP4 MSTORE SWAP2 PUSH1 0x20 ADD SWAP2 PUSH2 0x23C JUMP JUMPDEST DUP3 ADD SWAP2 SWAP1 PUSH1 0x0 MSTORE PUSH1 0x20 PUSH1 0x0 KECCAK256 SWAP1 JUMPDEST DUP2 SLOAD DUP2 MSTORE SWAP1 PUSH1 0x1 ADD SWAP1 PUSH1 0x20 ADD DUP1 DUP4 GT PUSH2 0x21F JUMPI DUP3 SWAP1 SUB PUSH1 0x1F AND DUP3 ADD SWAP2 JUMPDEST POP POP POP POP POP SWAP1 POP DUP4 JUMP JUMPDEST PUSH1 0x0 PUSH1 0x1 DUP1 SLOAD SWAP1 POP SWAP1 POP SWAP1 JUMP JUMPDEST PUSH32 0x0 PUSH1 0x1 DUP1 SLOAD SWAP1 POP LT PUSH2 0x2BA JUMPI PUSH1 0x40 MLOAD PUSH32 0x8C379A000000000000000000000000000000000000000000000000000000000 DUP2 MSTORE PUSH1 0x4 ADD PUSH2 0x2B1 SWAP1 PUSH2 0x93F JUMP JUMPDEST PUSH1 0x40 MLOAD DUP1 SWAP2 SUB SWAP1 REVERT JUMPDEST PUSH1 0x0 PUSH1 0x1 DUP1 SLOAD SWAP1 POP SWAP1 POP PUSH1 0x0 PUSH1 0x40 MLOAD DUP1 PUSH1 0x60 ADD PUSH1 0x40 MSTORE DUP1 DUP4 DUP2 MSTORE PUSH1 0x20 ADD DUP5 DUP2 MSTORE PUSH1 0x20 ADD DUP6 DUP2 MSTORE POP SWAP1 POP PUSH1 0x1 DUP2 SWAP1 DUP1 PUSH1 0x1 DUP2 SLOAD ADD DUP1 DUP3 SSTORE DUP1 SWAP2 POP POP PUSH1 0x1 SWAP1 SUB SWAP1 PUSH1 0x0 MSTORE PUSH1 0x20 PUSH1 0x0 KECCAK256 SWAP1 PUSH1 0x3 MUL ADD PUSH1 0x0 SWAP1 SWAP2 SWAP1 SWAP2 SWAP1 SWAP2 POP PUSH1 0x0 DUP3 ADD MLOAD DUP2 PUSH1 0x0 ADD SSTORE PUSH1 0x20 DUP3 ADD MLOAD DUP2 PUSH1 0x1 ADD SWAP1 DUP2 PUSH2 0x32E SWAP2 SWAP1 PUSH2 0xB0B JUMP JUMPDEST POP PUSH1 0x40 DUP3 ADD MLOAD DUP2 PUSH1 0x2 ADD SWAP1 DUP2 PUSH2 0x344 SWAP2 SWAP1 PUSH2 0xB0B JUMP JUMPDEST POP POP POP PUSH32 0x3569BCAA457D8BEB292F8EDFA802EA9D11D5322A42E9E2EAC4D8BC3FFD181046 DUP3 DUP5 DUP7 PUSH1 0x40 MLOAD PUSH2 0x37A SWAP4 SWAP3 SWAP2 SWAP1 PUSH2 0x659 JUMP JUMPDEST PUSH1 0x40 MLOAD DUP1 SWAP2 SUB SWAP1 LOG1 POP POP POP POP JUMP JUMPDEST PUSH1 0x1 DUP2 DUP2 SLOAD DUP2 LT PUSH2 0x398 JUMPI PUSH1 0x0 DUP1 REVERT JUMPDEST SWAP1 PUSH1 0x0 MSTORE PUSH1 0x20 PUSH1 0x0 KECCAK256 SWAP1 PUSH1 0x3 MUL ADD PUSH1 0x0 SWAP2 POP SWAP1 POP DUP1 PUSH1 0x0 ADD SLOAD SWAP1 DUP1 PUSH1 0x1 ADD DUP1 SLOAD PUSH2 0x3C1 SWAP1 PUSH2 0x8C2 JUMP JUMPDEST DUP1 PUSH1 0x1F ADD PUSH1 0x20 DUP1 SWAP2 DIV MUL PUSH1 0x20 ADD PUSH1 0x40 MLOAD SWAP1 DUP2 ADD PUSH1 0x40 MSTORE DUP1 SWAP3 SWAP2 SWAP1 DUP2 DUP2 MSTORE PUSH1 0x20 ADD DUP3 DUP1 SLOAD PUSH2 0x3ED SWAP1 PUSH2 0x8C2 JUMP JUMPDEST DUP1 ISZERO PUSH2 0x43A JUMPI DUP1 PUSH1 0x1F LT PUSH2 0x40F JUMPI PUSH2 0x100 DUP1 DUP4 SLOAD DIV MUL DUP4 MSTORE SWAP2 PUSH1 0x20 ADD SWAP2 PUSH2 0x43A JUMP JUMPDEST DUP3 ADD SWAP2 SWAP1 PUSH1 0x0 MSTORE PUSH1 0x20 PUSH1 0x0 KECCAK256 SWAP1 JUMPDEST DUP2 SLOAD DUP2 MSTORE SWAP1 PUSH1 0x1 ADD SWAP1 PUSH1 0x20 ADD DUP1 DUP4 GT PUSH2 0x41D JUMPI DUP3 SWAP1 SUB PUSH1 0x1F AND DUP3 ADD SWAP2 JUMPDEST POP POP POP POP POP SWAP1 DUP1 PUSH1 0x2 ADD DUP1 SLOAD PUSH2 0x44F SWAP1 PUSH2 0x8C2 JUMP JUMPDEST DUP1 PUSH1 0x1F ADD PUSH1 0x20 DUP1 SWAP2 DIV MUL PUSH1 0x20 ADD PUSH1 0x40 MLOAD SWAP1 DUP2 ADD PUSH1 0x40 MSTORE DUP1 SWAP3 SWAP2 SWAP1 DUP2 DUP2 MSTORE PUSH1 0x20 ADD DUP3 DUP1 SLOAD PUSH2 0x47B SWAP1 PUSH2 0x8C2 JUMP JUMPDEST DUP1 ISZERO PUSH2 0x4C8 JUMPI DUP1 PUSH1 0x1F LT PUSH2 0x49D JUMPI PUSH2 0x100 DUP1 DUP4 SLOAD DIV MUL DUP4 MSTORE SWAP2 PUSH1 0x20 ADD SWAP2 PUSH2 0x4C8 JUMP JUMPDEST DUP3 ADD SWAP2 SWAP1 PUSH1 0x0 MSTORE PUSH1 0x20 PUSH1 0x0 KECCAK256 SWAP1 JUMPDEST DUP2 SLOAD DUP2 MSTORE SWAP1 PUSH1 0x1 ADD SWAP1 PUSH1 0x20 ADD DUP1 DUP4 GT PUSH2 0x4AB JUMPI DUP3 SWAP1 SUB PUSH1 0x1F AND DUP3 ADD SWAP2 JUMPDEST POP POP POP POP POP SWAP1 POP DUP4 JUMP JUMPDEST PUSH1 0x0 PUSH1 0x40 MLOAD SWAP1 POP SWAP1 JUMP JUMPDEST PUSH1 0x0 DUP1 REVERT JUMPDEST PUSH1 0x0 DUP1 REVERT JUMPDEST PUSH1 0x0 PUSH20 0xFFFFFFFFFFFFFFFFFFFFFFFFFFFFFFFFFFFFFFFF DUP3 AND SWAP1 POP SWAP2 SWAP1 POP JUMP JUMPDEST PUSH1 0x0 PUSH2 0x511 DUP3 PUSH2 0x4E6 JUMP JUMPDEST SWAP1 POP SWAP2 SWAP1 POP JUMP JUMPDEST PUSH2 0x521 DUP2 PUSH2 0x506 JUMP JUMPDEST DUP2 EQ PUSH2 0x52C JUMPI PUSH1 0x0 DUP1 REVERT JUMPDEST POP JUMP JUMPDEST PUSH1 0x0 DUP2 CALLDATALOAD SWAP1 POP PUSH2 0x53E DUP2 PUSH2 0x518 JUMP JUMPDEST SWAP3 SWAP2 POP POP JUMP JUMPDEST PUSH1 0x0 DUP2 SWAP1 POP SWAP2 SWAP1 POP JUMP JUMPDEST PUSH2 0x557 DUP2 PUSH2 0x544 JUMP JUMPDEST DUP2 EQ PUSH2 0x562 JUMPI PUSH1 0x0 DUP1 REVERT JUMPDEST POP JUMP JUMPDEST PUSH1 0x0 DUP2 CALLDATALOAD SWAP1 POP PUSH2 0x574 DUP2 PUSH2 0x54E JUMP JUMPDEST SWAP3 SWAP2 POP POP JUMP JUMPDEST PUSH1 0x0 DUP1 PUSH1 0x40 DUP4 DUP6 SUB SLT ISZERO PUSH2 0x591 JUMPI PUSH2 0x590 PUSH2 0x4DC JUMP JUMPDEST JUMPDEST PUSH1 0x0 PUSH2 0x59F DUP6 DUP3 DUP7 ADD PUSH2 0x52F JUMP JUMPDEST SWAP3 POP POP PUSH1 0x20 PUSH2 0x5B0 DUP6 DUP3 DUP7 ADD PUSH2 0x565 JUMP JUMPDEST SWAP2 POP POP SWAP3 POP SWAP3 SWAP1 POP JUMP JUMPDEST PUSH2 0x5C3 DUP2 PUSH2 0x544 JUMP JUMPDEST DUP3 MSTORE POP POP JUMP JUMPDEST PUSH1 0x0 DUP2 MLOAD SWAP1 POP SWAP2 SWAP1 POP JUMP JUMPDEST PUSH1 0x0 DUP3 DUP3 MSTORE PUSH1 0x20 DUP3 ADD SWAP1 POP SWAP3 SWAP2 POP POP JUMP JUMPDEST PUSH1 0x0 JUMPDEST DUP4 DUP2 LT ISZERO PUSH2 0x603 JUMPI DUP1 DUP3 ADD MLOAD DUP2 DUP5 ADD MSTORE PUSH1 0x20 DUP2 ADD SWAP1 POP PUSH2 0x5E8 JUMP JUMPDEST PUSH1 0x0 DUP5 DUP5 ADD MSTORE POP POP POP POP JUMP JUMPDEST PUSH1 0x0 PUSH1 0x1F NOT PUSH1 0x1F DUP4 ADD AND SWAP1 POP SWAP2 SWAP1 POP JUMP JUMPDEST PUSH1 0x0 PUSH2 0x62B DUP3 PUSH2 0x5C9 JUMP JUMPDEST PUSH2 0x635 DUP2 DUP6 PUSH2 0x5D4 JUMP JUMPDEST SWAP4 POP PUSH2 0x645 DUP2 DUP6 PUSH1 0x20 DUP7 ADD PUSH2 0x5E5 JUMP JUMPDEST PUSH2 0x64E DUP2 PUSH2 0x60F JUMP JUMPDEST DUP5 ADD SWAP2 POP POP SWAP3 SWAP2 POP POP JUMP JUMPDEST PUSH1 0x0 PUSH1 0x60 DUP3 ADD SWAP1 POP PUSH2 0x66E PUSH1 0x0 DUP4 ADD DUP7 PUSH2 0x5BA JUMP JUMPDEST DUP2 DUP2 SUB PUSH1 0x20 DUP4 ADD MSTORE PUSH2 0x680 DUP2 DUP6 PUSH2 0x620 JUMP JUMPDEST SWAP1 POP DUP2 DUP2 SUB PUSH1 0x40 DUP4 ADD MSTORE PUSH2 0x694 DUP2 DUP5 PUSH2 0x620 JUMP JUMPDEST SWAP1 POP SWAP5 SWAP4 POP POP POP POP JUMP JUMPDEST PUSH1 0x0 PUSH1 0x20 DUP3 ADD SWAP1 POP PUSH2 0x6B3 PUSH1 0x0 DUP4 ADD DUP5 PUSH2 0x5BA JUMP JUMPDEST SWAP3 SWAP2 POP POP JUMP JUMPDEST PUSH1 0x0 DUP1 REVERT JUMPDEST PUSH1 0x0 DUP1 REVERT JUMPDEST PUSH32 0x4E487B7100000000000000000000000000000000000000000000000000000000 PUSH1 0x0 MSTORE PUSH1 0x41 PUSH1 0x4 MSTORE PUSH1 0x24 PUSH1 0x0 REVERT JUMPDEST PUSH2 0x6FB DUP3 PUSH2 0x60F JUMP JUMPDEST DUP2 ADD DUP2 DUP2 LT PUSH8 0xFFFFFFFFFFFFFFFF DUP3 GT OR ISZERO PUSH2 0x71A JUMPI PUSH2 0x719 PUSH2 0x6C3 JUMP JUMPDEST JUMPDEST DUP1 PUSH1 0x40 MSTORE POP POP POP JUMP JUMPDEST PUSH1 0x0 PUSH2 0x72D PUSH2 0x4D2 JUMP JUMPDEST SWAP1 POP PUSH2 0x739 DUP3 DUP3 PUSH2 0x6F2 JUMP JUMPDEST SWAP2 SWAP1 POP JUMP JUMPDEST PUSH1 0x0 PUSH8 0xFFFFFFFFFFFFFFFF DUP3 GT ISZERO PUSH2 0x759 JUMPI PUSH2 0x758 PUSH2 0x6C3 JUMP JUMPDEST JUMPDEST PUSH2 0x762 DUP3 PUSH2 0x60F JUMP JUMPDEST SWAP1 POP PUSH1 0x20 DUP2 ADD SWAP1 POP SWAP2 SWAP1 POP JUMP JUMPDEST DUP3 DUP2 DUP4 CALLDATACOPY PUSH1 0x0 DUP4 DUP4 ADD MSTORE POP POP POP JUMP JUMPDEST PUSH1 0x0 PUSH2 0x791 PUSH2 0x78C DUP5 PUSH2 0x73E JUMP JUMPDEST PUSH2 0x723 JUMP JUMPDEST SWAP1 POP DUP3 DUP2 MSTORE PUSH1 0x20 DUP2 ADD DUP5 DUP5 DUP5 ADD GT ISZERO PUSH2 0x7AD JUMPI PUSH2 0x7AC PUSH2 0x6BE JUMP JUMPDEST JUMPDEST PUSH2 0x7B8 DUP5 DUP3 DUP6 PUSH2 0x76F JUMP JUMPDEST POP SWAP4 SWAP3 POP POP POP JUMP JUMPDEST PUSH1 0x0 DUP3 PUSH1 0x1F DUP4 ADD SLT PUSH2 0x7D5 JUMPI PUSH2 0x7D4 PUSH2 0x6B9 JUMP JUMPDEST JUMPDEST DUP2 CALLDATALOAD PUSH2 0x7E5 DUP5 DUP3 PUSH1 0x20 DUP7 ADD PUSH2 0x77E JUMP JUMPDEST SWAP2 POP POP SWAP3 SWAP2 POP POP JUMP JUMPDEST PUSH1 0x0 DUP1 PUSH1 0x40 DUP4 DUP6 SUB SLT ISZERO PUSH2 0x805 JUMPI PUSH2 0x804 PUSH2 0x4DC JUMP JUMPDEST JUMPDEST PUSH1 0x0 DUP4 ADD CALLDATALOAD PUSH8 0xFFFFFFFFFFFFFFFF DUP2 GT ISZERO PUSH2 0x823 JUMPI PUSH2 0x822 PUSH2 0x4E1 JUMP JUMPDEST JUMPDEST PUSH2 0x82F DUP6 DUP3 DUP7 ADD PUSH2 0x7C0 JUMP JUMPDEST SWAP3 POP POP PUSH1 0x20 DUP4 ADD CALLDATALOAD PUSH8 0xFFFFFFFFFFFFFFFF DUP2 GT ISZERO PUSH2 0x850 JUMPI PUSH2 0x84F PUSH2 0x4E1 JUMP JUMPDEST JUMPDEST PUSH2 0x85C DUP6 DUP3 DUP7 ADD PUSH2 0x7C0 JUMP JUMPDEST SWAP2 POP POP SWAP3 POP SWAP3 SWAP1 POP JUMP JUMPDEST PUSH1 0x0 PUSH1 0x20 DUP3 DUP5 SUB SLT ISZERO PUSH2 0x87C JUMPI PUSH2 0x87B PUSH2 0x4DC JUMP JUMPDEST JUMPDEST PUSH1 0x0 PUSH2 0x88A DUP5 DUP3 DUP6 ADD PUSH2 0x565 JUMP JUMPDEST SWAP2 POP POP SWAP3 SWAP2 POP POP JUMP JUMPDEST PUSH32 0x4E487B7100000000000000000000000000000000000000000000000000000000 PUSH1 0x0 MSTORE PUSH1 0x22 PUSH1 0x4 MSTORE PUSH1 0x24 PUSH1 0x0 REVERT JUMPDEST PUSH1 0x0 PUSH1 0x2 DUP3 DIV SWAP1 POP PUSH1 0x1 DUP3 AND DUP1 PUSH2 0x8DA JUMPI PUSH1 0x7F DUP3 AND SWAP2 POP JUMPDEST PUSH1 0x20 DUP3 LT DUP2 SUB PUSH2 0x8ED JUMPI PUSH2 0x8EC PUSH2 0x893 JUMP JUMPDEST JUMPDEST POP SWAP2 SWAP1 POP JUMP JUMPDEST PUSH32 0x4D6178206E756D626572206F662066696C657320726561636865640000000000 PUSH1 0x0 DUP3 ADD MSTORE POP JUMP JUMPDEST PUSH1 0x0 PUSH2 0x929 PUSH1 0x1B DUP4 PUSH2 0x5D4 JUMP JUMPDEST SWAP2 POP PUSH2 0x934 DUP3 PUSH2 0x8F3 JUMP JUMPDEST PUSH1 0x20 DUP3 ADD SWAP1 POP SWAP2 SWAP1 POP JUMP JUMPDEST PUSH1 0x0 PUSH1 0x20 DUP3 ADD SWAP1 POP DUP2 DUP2 SUB PUSH1 0x0 DUP4 ADD MSTORE PUSH2 0x958 DUP2 PUSH2 0x91C JUMP JUMPDEST SWAP1 POP SWAP2 SWAP1 POP JUMP JUMPDEST PUSH1 0x0 DUP2 SWAP1 POP DUP2 PUSH1 0x0 MSTORE PUSH1 0x20 PUSH1 0x0 KECCAK256 SWAP1 POP SWAP2 SWAP1 POP JUMP JUMPDEST PUSH1 0x0 PUSH1 0x20 PUSH1 0x1F DUP4 ADD DIV SWAP1 POP SWAP2 SWAP1 POP JUMP JUMPDEST PUSH1 0x0 DUP3 DUP3 SHL SWAP1 POP SWAP3 SWAP2 POP POP JUMP JUMPDEST PUSH1 0x0 PUSH1 0x8 DUP4 MUL PUSH2 0x9C1 PUSH32 0xFFFFFFFFFFFFFFFFFFFFFFFFFFFFFFFFFFFFFFFFFFFFFFFFFFFFFFFFFFFFFFFF DUP3 PUSH2 0x984 JUMP JUMPDEST PUSH2 0x9CB DUP7 DUP4 PUSH2 0x984 JUMP JUMPDEST SWAP6 POP DUP1 NOT DUP5 AND SWAP4 POP DUP1 DUP7 AND DUP5 OR SWAP3 POP POP POP SWAP4 SWAP3 POP POP POP JUMP JUMPDEST PUSH1 0x0 DUP2 SWAP1 POP SWAP2 SWAP1 POP JUMP JUMPDEST PUSH1 0x0 PUSH2 0xA08 PUSH2 0xA03 PUSH2 0x9FE DUP5 PUSH2 0x544 JUMP JUMPDEST PUSH2 0x9E3 JUMP JUMPDEST PUSH2 0x544 JUMP JUMPDEST SWAP1 POP SWAP2 SWAP1 POP JUMP JUMPDEST PUSH1 0x0 DUP2 SWAP1 POP SWAP2 SWAP1 POP JUMP JUMPDEST PUSH2 0xA22 DUP4 PUSH2 0x9ED JUMP JUMPDEST PUSH2 0xA36 PUSH2 0xA2E DUP3 PUSH2 0xA0F JUMP JUMPDEST DUP5 DUP5 SLOAD PUSH2 0x991 JUMP JUMPDEST DUP3 SSTORE POP POP POP POP JUMP JUMPDEST PUSH1 0x0 SWAP1 JUMP JUMPDEST PUSH2 0xA4B PUSH2 0xA3E JUMP JUMPDEST PUSH2 0xA56 DUP2 DUP5 DUP5 PUSH2 0xA19 JUMP JUMPDEST POP POP POP JUMP JUMPDEST JUMPDEST DUP2 DUP2 LT ISZERO PUSH2 0xA7A JUMPI PUSH2 0xA6F PUSH1 0x0 DUP3 PUSH2 0xA43 JUMP JUMPDEST PUSH1 0x1 DUP2 ADD SWAP1 POP PUSH2 0xA5C JUMP JUMPDEST POP POP JUMP JUMPDEST PUSH1 0x1F DUP3 GT ISZERO PUSH2 0xABF JUMPI PUSH2 0xA90 DUP2 PUSH2 0x95F JUMP JUMPDEST PUSH2 0xA99 DUP5 PUSH2 0x974 JUMP JUMPDEST DUP2 ADD PUSH1 0x20 DUP6 LT ISZERO PUSH2 0xAA8 JUMPI DUP2 SWAP1 POP JUMPDEST PUSH2 0xABC PUSH2 0xAB4 DUP6 PUSH2 0x974 JUMP JUMPDEST DUP4 ADD DUP3 PUSH2 0xA5B JUMP JUMPDEST POP POP JUMPDEST POP POP POP JUMP JUMPDEST PUSH1 0x0 DUP3 DUP3 SHR SWAP1 POP SWAP3 SWAP2 POP POP JUMP JUMPDEST PUSH1 0x0 PUSH2 0xAE2 PUSH1 0x0 NOT DUP5 PUSH1 0x8 MUL PUSH2 0xAC4 JUMP JUMPDEST NOT DUP1 DUP4 AND SWAP2 POP POP SWAP3 SWAP2 POP POP JUMP JUMPDEST PUSH1 0x0 PUSH2 0xAFB DUP4 DUP4 PUSH2 0xAD1 JUMP JUMPDEST SWAP2 POP DUP3 PUSH1 0x2 MUL DUP3 OR SWAP1 POP SWAP3 SWAP2 POP POP JUMP JUMPDEST PUSH2 0xB14 DUP3 PUSH2 0x5C9 JUMP JUMPDEST PUSH8 0xFFFFFFFFFFFFFFFF DUP2 GT ISZERO PUSH2 0xB2D JUMPI PUSH2 0xB2C PUSH2 0x6C3 JUMP JUMPDEST JUMPDEST PUSH2 0xB37 DUP3 SLOAD PUSH2 0x8C2 JUMP JUMPDEST PUSH2 0xB42 DUP3 DUP3 DUP6 PUSH2 0xA7E JUMP JUMPDEST PUSH1 0x0 PUSH1 0x20 SWAP1 POP PUSH1 0x1F DUP4 GT PUSH1 0x1 DUP2 EQ PUSH2 0xB75 JUMPI PUSH1 0x0 DUP5 ISZERO PUSH2 0xB63 JUMPI DUP3 DUP8 ADD MLOAD SWAP1 POP JUMPDEST PUSH2 0xB6D DUP6 DUP3 PUSH2 0xAEF JUMP JUMPDEST DUP7 SSTORE POP PUSH2 0xBD5 JUMP JUMPDEST PUSH1 0x1F NOT DUP5 AND PUSH2 0xB83 DUP7 PUSH2 0x95F JUMP JUMPDEST PUSH1 0x0 JUMPDEST DUP3 DUP2 LT ISZERO PUSH2 0xBAB JUMPI DUP5 DUP10 ADD MLOAD DUP3 SSTORE PUSH1 0x1 DUP3 ADD SWAP2 POP PUSH1 0x20 DUP6 ADD SWAP5 POP PUSH1 0x20 DUP2 ADD SWAP1 POP PUSH2 0xB86 JUMP JUMPDEST DUP7 DUP4 LT ISZERO PUSH2 0xBC8 JUMPI DUP5 DUP10 ADD MLOAD PUSH2 0xBC4 PUSH1 0x1F DUP10 AND DUP3 PUSH2 0xAD1 JUMP JUMPDEST DUP4 SSTORE POP JUMPDEST PUSH1 0x1 PUSH1 0x2 DUP9 MUL ADD DUP9 SSTORE POP POP POP JUMPDEST POP POP POP POP POP POP JUMP INVALID LOG2 PUSH5 0x6970667358 0x22 SLT KECCAK256 ADDMOD MSIZE 0xE9 DUP6 0xE0 0xC0 0x5E DUP1 0xCF ORIGIN 0xA9 PUSH24 0x84EAEB4FD44D32E54C9F3741337809B590C2E92664736F6C PUSH4 0x43000811 STOP CALLER "},"methodIdentifiers":{"addressToFiles(address,uint256)":"782ad516","files(uint256)":"f4c714b4","getNumFiles()":"97e8f55e","uploadFile(string,string)":"996d50bf"}}}}}